{
  "abi": [
    {
      "type": "constructor",
      "inputs": [],
      "stateMutability": "nonpayable"
    },
    {
      "type": "function",
      "name": "MAX_BATCH_SIZE_LIMIT",
      "inputs": [],
      "outputs": [
        {
          "name": "",
          "type": "uint256",
          "internalType": "uint256"
        }
      ],
      "stateMutability": "view"
    },
    {
      "type": "function",
      "name": "MAX_DEPOSIT_AMOUNT",
      "inputs": [],
      "outputs": [
        {
          "name": "",
          "type": "uint256",
          "internalType": "uint256"
        }
      ],
      "stateMutability": "view"
    },
    {
      "type": "function",
      "name": "MIN_DEPOSIT_AMOUNT",
      "inputs": [],
      "outputs": [
        {
          "name": "",
          "type": "uint256",
          "internalType": "uint256"
        }
      ],
      "stateMutability": "view"
    },
    {
      "type": "function",
      "name": "UPGRADE_INTERFACE_VERSION",
      "inputs": [],
      "outputs": [
        {
          "name": "",
          "type": "string",
          "internalType": "string"
        }
      ],
      "stateMutability": "view"
    },
    {
      "type": "function",
      "name": "_safeTransferWrapper",
      "inputs": [
        {
          "name": "token",
          "type": "address",
          "internalType": "contract IERC20"
        },
        {
          "name": "to",
          "type": "address",
          "internalType": "address"
        },
        {
          "name": "amount",
          "type": "uint256",
          "internalType": "uint256"
        }
      ],
      "outputs": [],
      "stateMutability": "nonpayable"
    },
    {
      "type": "function",
      "name": "defaultPaymentToken",
      "inputs": [],
      "outputs": [
        {
          "name": "",
          "type": "address",
          "internalType": "address"
        }
      ],
      "stateMutability": "view"
    },
    {
      "type": "function",
      "name": "depositCount",
      "inputs": [],
      "outputs": [
        {
          "name": "",
          "type": "uint256",
          "internalType": "uint256"
        }
      ],
      "stateMutability": "view"
    },
    {
      "type": "function",
      "name": "depositForHouse",
      "inputs": [
        {
          "name": "houseId",
          "type": "uint256",
          "internalType": "uint256"
        },
        {
          "name": "amount",
          "type": "uint256",
          "internalType": "uint256"
        }
      ],
      "outputs": [
        {
          "name": "depositId",
          "type": "uint256",
          "internalType": "uint256"
        }
      ],
      "stateMutability": "nonpayable"
    },
    {
      "type": "function",
      "name": "depositRecords",
      "inputs": [
        {
          "name": "",
          "type": "uint256",
          "internalType": "uint256"
        }
      ],
      "outputs": [
        {
          "name": "depositId",
          "type": "uint256",
          "internalType": "uint256"
        },
        {
          "name": "houseId",
          "type": "uint256",
          "internalType": "uint256"
        },
        {
          "name": "amount",
          "type": "uint256",
          "internalType": "uint256"
        },
        {
          "name": "timestamp",
          "type": "uint256",
          "internalType": "uint256"
        },
        {
          "name": "token",
          "type": "address",
          "internalType": "address"
        },
        {
          "name": "depositor",
          "type": "address",
          "internalType": "address"
        }
      ],
      "stateMutability": "view"
    },
    {
      "type": "function",
      "name": "distributeRentForHouse",
      "inputs": [
        {
          "name": "distributionId",
          "type": "uint256",
          "internalType": "uint256"
        },
        {
          "name": "houseId",
          "type": "uint256",
          "internalType": "uint256"
        },
        {
          "name": "recipients",
          "type": "address[]",
          "internalType": "address[]"
        },
        {
          "name": "amounts",
          "type": "uint256[]",
          "internalType": "uint256[]"
        }
      ],
      "outputs": [
        {
          "name": "result",
          "type": "tuple",
          "internalType": "struct RentCustodyContract.DistributionDetail",
          "components": [
            {
              "name": "distributionId",
              "type": "uint256",
              "internalType": "uint256"
            },
            {
              "name": "houseId",
              "type": "uint256",
              "internalType": "uint256"
            },
            {
              "name": "totalAmount",
              "type": "uint256",
              "internalType": "uint256"
            },
            {
              "name": "timestamp",
              "type": "uint256",
              "internalType": "uint256"
            },
            {
              "name": "successCount",
              "type": "uint128",
              "internalType": "uint128"
            },
            {
              "name": "failCount",
              "type": "uint128",
              "internalType": "uint128"
            },
            {
              "name": "token",
              "type": "address",
              "internalType": "address"
            },
            {
              "name": "distributor",
              "type": "address",
              "internalType": "address"
            },
            {
              "name": "sequenceId",
              "type": "uint256",
              "internalType": "uint256"
            }
          ]
        }
      ],
      "stateMutability": "nonpayable"
    },
    {
      "type": "function",
      "name": "distributionCount",
      "inputs": [],
      "outputs": [
        {
          "name": "",
          "type": "uint256",
          "internalType": "uint256"
        }
      ],
      "stateMutability": "view"
    },
    {
      "type": "function",
      "name": "distributionRecords",
      "inputs": [
        {
          "name": "",
          "type": "uint256",
          "internalType": "uint256"
        },
        {
          "name": "",
          "type": "uint256",
          "internalType": "uint256"
        }
      ],
      "outputs": [
        {
          "name": "distributionId",
          "type": "uint256",
          "internalType": "uint256"
        },
        {
          "name": "houseId",
          "type": "uint256",
          "internalType": "uint256"
        },
        {
          "name": "totalAmount",
          "type": "uint256",
          "internalType": "uint256"
        },
        {
          "name": "timestamp",
          "type": "uint256",
          "internalType": "uint256"
        },
        {
          "name": "successCount",
          "type": "uint128",
          "internalType": "uint128"
        },
        {
          "name": "failCount",
          "type": "uint128",
          "internalType": "uint128"
        },
        {
          "name": "token",
          "type": "address",
          "internalType": "address"
        },
        {
          "name": "distributor",
          "type": "address",
          "internalType": "address"
        },
        {
          "name": "sequenceId",
          "type": "uint256",
          "internalType": "uint256"
        }
      ],
      "stateMutability": "view"
    },
    {
      "type": "function",
      "name": "distributionSequenceCount",
      "inputs": [
        {
          "name": "",
          "type": "uint256",
          "internalType": "uint256"
        }
      ],
      "outputs": [
        {
          "name": "",
          "type": "uint256",
          "internalType": "uint256"
        }
      ],
      "stateMutability": "view"
    },
    {
      "type": "function",
      "name": "emergencyAdmin",
      "inputs": [],
      "outputs": [
        {
          "name": "",
          "type": "address",
          "internalType": "address"
        }
      ],
      "stateMutability": "view"
    },
    {
      "type": "function",
      "name": "emergencyWithdraw",
      "inputs": [
        {
          "name": "amount",
          "type": "uint256",
          "internalType": "uint256"
        }
      ],
      "outputs": [],
      "stateMutability": "nonpayable"
    },
    {
      "type": "function",
      "name": "emergencyWithdraw",
      "inputs": [
        {
          "name": "token",
          "type": "address",
          "internalType": "address"
        },
        {
          "name": "to",
          "type": "address",
          "internalType": "address"
        },
        {
          "name": "amount",
          "type": "uint256",
          "internalType": "uint256"
        }
      ],
      "outputs": [],
      "stateMutability": "nonpayable"
    },
    {
      "type": "function",
      "name": "getContractBalance",
      "inputs": [
        {
          "name": "token",
          "type": "address",
          "internalType": "address"
        }
      ],
      "outputs": [
        {
          "name": "",
          "type": "uint256",
          "internalType": "uint256"
        }
      ],
      "stateMutability": "view"
    },
    {
      "type": "function",
      "name": "getDepositRecord",
      "inputs": [
        {
          "name": "depositId",
          "type": "uint256",
          "internalType": "uint256"
        }
      ],
      "outputs": [
        {
          "name": "",
          "type": "tuple",
          "internalType": "struct RentCustodyContract.DepositRecord",
          "components": [
            {
              "name": "depositId",
              "type": "uint256",
              "internalType": "uint256"
            },
            {
              "name": "houseId",
              "type": "uint256",
              "internalType": "uint256"
            },
            {
              "name": "amount",
              "type": "uint256",
              "internalType": "uint256"
            },
            {
              "name": "timestamp",
              "type": "uint256",
              "internalType": "uint256"
            },
            {
              "name": "token",
              "type": "address",
              "internalType": "address"
            },
            {
              "name": "depositor",
              "type": "address",
              "internalType": "address"
            }
          ]
        }
      ],
      "stateMutability": "view"
    },
    {
      "type": "function",
      "name": "getDistributionBySequence",
      "inputs": [
        {
          "name": "distributionId",
          "type": "uint256",
          "internalType": "uint256"
        },
        {
          "name": "sequenceId",
          "type": "uint256",
          "internalType": "uint256"
        }
      ],
      "outputs": [
        {
          "name": "",
          "type": "tuple",
          "internalType": "struct RentCustodyContract.DistributionDetail",
          "components": [
            {
              "name": "distributionId",
              "type": "uint256",
              "internalType": "uint256"
            },
            {
              "name": "houseId",
              "type": "uint256",
              "internalType": "uint256"
            },
            {
              "name": "totalAmount",
              "type": "uint256",
              "internalType": "uint256"
            },
            {
              "name": "timestamp",
              "type": "uint256",
              "internalType": "uint256"
            },
            {
              "name": "successCount",
              "type": "uint128",
              "internalType": "uint128"
            },
            {
              "name": "failCount",
              "type": "uint128",
              "internalType": "uint128"
            },
            {
              "name": "token",
              "type": "address",
              "internalType": "address"
            },
            {
              "name": "distributor",
              "type": "address",
              "internalType": "address"
            },
            {
              "name": "sequenceId",
              "type": "uint256",
              "internalType": "uint256"
            }
          ]
        }
      ],
      "stateMutability": "view"
    },
    {
      "type": "function",
      "name": "getDistributionCount",
      "inputs": [
        {
          "name": "distributionId",
          "type": "uint256",
          "internalType": "uint256"
        }
      ],
      "outputs": [
        {
          "name": "",
          "type": "uint256",
          "internalType": "uint256"
        }
      ],
      "stateMutability": "view"
    },
    {
      "type": "function",
      "name": "getDistributionRecord",
      "inputs": [
        {
          "name": "distributionId",
          "type": "uint256",
          "internalType": "uint256"
        }
      ],
      "outputs": [
        {
          "name": "",
          "type": "tuple",
          "internalType": "struct RentCustodyContract.DistributionDetail",
          "components": [
            {
              "name": "distributionId",
              "type": "uint256",
              "internalType": "uint256"
            },
            {
              "name": "houseId",
              "type": "uint256",
              "internalType": "uint256"
            },
            {
              "name": "totalAmount",
              "type": "uint256",
              "internalType": "uint256"
            },
            {
              "name": "timestamp",
              "type": "uint256",
              "internalType": "uint256"
            },
            {
              "name": "successCount",
              "type": "uint128",
              "internalType": "uint128"
            },
            {
              "name": "failCount",
              "type": "uint128",
              "internalType": "uint128"
            },
            {
              "name": "token",
              "type": "address",
              "internalType": "address"
            },
            {
              "name": "distributor",
              "type": "address",
              "internalType": "address"
            },
            {
              "name": "sequenceId",
              "type": "uint256",
              "internalType": "uint256"
            }
          ]
        }
      ],
      "stateMutability": "view"
    },
    {
      "type": "function",
      "name": "getHouseBalance",
      "inputs": [
        {
          "name": "houseId",
          "type": "uint256",
          "internalType": "uint256"
        }
      ],
      "outputs": [
        {
          "name": "",
          "type": "uint256",
          "internalType": "uint256"
        }
      ],
      "stateMutability": "view"
    },
    {
      "type": "function",
      "name": "getHouseBalanceDetails",
      "inputs": [
        {
          "name": "houseId",
          "type": "uint256",
          "internalType": "uint256"
        }
      ],
      "outputs": [
        {
          "name": "",
          "type": "tuple",
          "internalType": "struct RentCustodyContract.HouseBalance",
          "components": [
            {
              "name": "totalDeposited",
              "type": "uint256",
              "internalType": "uint256"
            },
            {
              "name": "totalDistributed",
              "type": "uint256",
              "internalType": "uint256"
            },
            {
              "name": "currentBalance",
              "type": "uint256",
              "internalType": "uint256"
            },
            {
              "name": "lastUpdateTime",
              "type": "uint256",
              "internalType": "uint256"
            }
          ]
        }
      ],
      "stateMutability": "view"
    },
    {
      "type": "function",
      "name": "houseBalances",
      "inputs": [
        {
          "name": "",
          "type": "uint256",
          "internalType": "uint256"
        }
      ],
      "outputs": [
        {
          "name": "totalDeposited",
          "type": "uint256",
          "internalType": "uint256"
        },
        {
          "name": "totalDistributed",
          "type": "uint256",
          "internalType": "uint256"
        },
        {
          "name": "currentBalance",
          "type": "uint256",
          "internalType": "uint256"
        },
        {
          "name": "lastUpdateTime",
          "type": "uint256",
          "internalType": "uint256"
        }
      ],
      "stateMutability": "view"
    },
    {
      "type": "function",
      "name": "initialize",
      "inputs": [
        {
          "name": "_systemConfig",
          "type": "address",
          "internalType": "address"
        },
        {
          "name": "_defaultPaymentToken",
          "type": "address",
          "internalType": "address"
        },
        {
          "name": "_maxBatchSize",
          "type": "uint256",
          "internalType": "uint256"
        }
      ],
      "outputs": [],
      "stateMutability": "nonpayable"
    },
    {
      "type": "function",
      "name": "isPaused",
      "inputs": [],
      "outputs": [
        {
          "name": "",
          "type": "bool",
          "internalType": "bool"
        }
      ],
      "stateMutability": "view"
    },
    {
      "type": "function",
      "name": "maxBatchSize",
      "inputs": [],
      "outputs": [
        {
          "name": "",
          "type": "uint256",
          "internalType": "uint256"
        }
      ],
      "stateMutability": "view"
    },
    {
      "type": "function",
      "name": "pause",
      "inputs": [],
      "outputs": [],
      "stateMutability": "nonpayable"
    },
    {
      "type": "function",
      "name": "paused",
      "inputs": [],
      "outputs": [
        {
          "name": "",
          "type": "bool",
          "internalType": "bool"
        }
      ],
      "stateMutability": "view"
    },
    {
      "type": "function",
      "name": "proxiableUUID",
      "inputs": [],
      "outputs": [
        {
          "name": "",
          "type": "bytes32",
          "internalType": "bytes32"
        }
      ],
      "stateMutability": "view"
    },
    {
      "type": "function",
      "name": "setEmergencyAdmin",
      "inputs": [
        {
          "name": "_emergencyAdmin",
          "type": "address",
          "internalType": "address"
        }
      ],
      "outputs": [],
      "stateMutability": "nonpayable"
    },
    {
      "type": "function",
      "name": "setMaxBatchSize",
      "inputs": [
        {
          "name": "_maxBatchSize",
          "type": "uint256",
          "internalType": "uint256"
        }
      ],
      "outputs": [],
      "stateMutability": "nonpayable"
    },
    {
      "type": "function",
      "name": "systemConfig",
      "inputs": [],
      "outputs": [
        {
          "name": "",
          "type": "address",
          "internalType": "address"
        }
      ],
      "stateMutability": "view"
    },
    {
      "type": "function",
      "name": "unpause",
      "inputs": [],
      "outputs": [],
      "stateMutability": "nonpayable"
    },
    {
      "type": "function",
      "name": "upgradeToAndCall",
      "inputs": [
        {
          "name": "newImplementation",
          "type": "address",
          "internalType": "address"
        },
        {
          "name": "data",
          "type": "bytes",
          "internalType": "bytes"
        }
      ],
      "outputs": [],
      "stateMutability": "payable"
    },
    {
      "type": "function",
      "name": "version",
      "inputs": [],
      "outputs": [
        {
          "name": "",
          "type": "string",
          "internalType": "string"
        }
      ],
      "stateMutability": "pure"
    },
    {
      "type": "function",
      "name": "versionDetails",
      "inputs": [],
      "outputs": [
        {
          "name": "major",
          "type": "uint256",
          "internalType": "uint256"
        },
        {
          "name": "minor",
          "type": "uint256",
          "internalType": "uint256"
        },
        {
          "name": "patch",
          "type": "uint256",
          "internalType": "uint256"
        }
      ],
      "stateMutability": "pure"
    },
    {
      "type": "event",
      "name": "ContractInitialized",
      "inputs": [
        {
          "name": "systemConfig",
          "type": "address",
          "indexed": true,
          "internalType": "address"
        },
        {
          "name": "defaultPaymentToken",
          "type": "address",
          "indexed": true,
          "internalType": "address"
        },
        {
          "name": "maxBatchSize",
          "type": "uint256",
          "indexed": false,
          "internalType": "uint256"
        }
      ],
      "anonymous": false
    },
    {
      "type": "event",
      "name": "DepositCreated",
      "inputs": [
        {
          "name": "depositId",
          "type": "uint256",
          "indexed": true,
          "internalType": "uint256"
        },
        {
          "name": "amount",
          "type": "uint256",
          "indexed": true,
          "internalType": "uint256"
        },
        {
          "name": "depositor",
          "type": "address",
          "indexed": true,
          "internalType": "address"
        }
      ],
      "anonymous": false
    },
    {
      "type": "event",
      "name": "EmergencyAdminUpdated",
      "inputs": [
        {
          "name": "oldAdmin",
          "type": "address",
          "indexed": true,
          "internalType": "address"
        },
        {
          "name": "newAdmin",
          "type": "address",
          "indexed": true,
          "internalType": "address"
        }
      ],
      "anonymous": false
    },
    {
      "type": "event",
      "name": "EmergencyAdminUsed",
      "inputs": [
        {
          "name": "admin",
          "type": "address",
          "indexed": true,
          "internalType": "address"
        }
      ],
      "anonymous": false
    },
    {
      "type": "event",
      "name": "EmergencyWithdraw",
      "inputs": [
        {
          "name": "token",
          "type": "address",
          "indexed": true,
          "internalType": "address"
        },
        {
          "name": "to",
          "type": "address",
          "indexed": true,
          "internalType": "address"
        },
        {
          "name": "amount",
          "type": "uint256",
          "indexed": false,
          "internalType": "uint256"
        },
        {
          "name": "operator",
          "type": "address",
          "indexed": true,
          "internalType": "address"
        }
      ],
      "anonymous": false
    },
    {
      "type": "event",
      "name": "Initialized",
      "inputs": [
        {
          "name": "version",
          "type": "uint64",
          "indexed": false,
          "internalType": "uint64"
        }
      ],
      "anonymous": false
    },
    {
      "type": "event",
      "name": "PartialDistributionFailure",
      "inputs": [
        {
          "name": "distributionId",
          "type": "uint256",
          "indexed": true,
          "internalType": "uint256"
        },
        {
          "name": "failedAmount",
          "type": "uint256",
          "indexed": false,
          "internalType": "uint256"
        },
        {
          "name": "failCount",
          "type": "uint128",
          "indexed": false,
          "internalType": "uint128"
        }
      ],
      "anonymous": false
    },
    {
      "type": "event",
      "name": "Paused",
      "inputs": [
        {
          "name": "account",
          "type": "address",
          "indexed": false,
          "internalType": "address"
        }
      ],
      "anonymous": false
    },
    {
      "type": "event",
      "name": "RentDistributed",
      "inputs": [
        {
          "name": "distributionId",
          "type": "uint256",
          "indexed": true,
          "internalType": "uint256"
        },
        {
          "name": "houseId",
          "type": "uint256",
          "indexed": true,
          "internalType": "uint256"
        },
        {
          "name": "sequenceId",
          "type": "uint256",
          "indexed": true,
          "internalType": "uint256"
        },
        {
          "name": "token",
          "type": "address",
          "indexed": false,
          "internalType": "address"
        },
        {
          "name": "totalAmount",
          "type": "uint256",
          "indexed": false,
          "internalType": "uint256"
        },
        {
          "name": "successCount",
          "type": "uint128",
          "indexed": false,
          "internalType": "uint128"
        },
        {
          "name": "failCount",
          "type": "uint128",
          "indexed": false,
          "internalType": "uint128"
        },
        {
          "name": "distributor",
          "type": "address",
          "indexed": false,
          "internalType": "address"
        }
      ],
      "anonymous": false
    },
    {
      "type": "event",
      "name": "TransferFailed",
      "inputs": [
        {
          "name": "token",
          "type": "address",
          "indexed": true,
          "internalType": "address"
        },
        {
          "name": "recipient",
          "type": "address",
          "indexed": true,
          "internalType": "address"
        },
        {
          "name": "amount",
          "type": "uint256",
          "indexed": true,
          "internalType": "uint256"
        },
        {
          "name": "reason",
          "type": "string",
          "indexed": false,
          "internalType": "string"
        }
      ],
      "anonymous": false
    },
    {
      "type": "event",
      "name": "Unpaused",
      "inputs": [
        {
          "name": "account",
          "type": "address",
          "indexed": false,
          "internalType": "address"
        }
      ],
      "anonymous": false
    },
    {
      "type": "event",
      "name": "Upgraded",
      "inputs": [
        {
          "name": "implementation",
          "type": "address",
          "indexed": true,
          "internalType": "address"
        }
      ],
      "anonymous": false
    },
    {
      "type": "error",
      "name": "AddressEmptyCode",
      "inputs": [
        {
          "name": "target",
          "type": "address",
          "internalType": "address"
        }
      ]
    },
    {
      "type": "error",
      "name": "ArraysLengthMismatch",
      "inputs": []
    },
    {
      "type": "error",
      "name": "ContractPaused",
      "inputs": []
    },
    {
      "type": "error",
      "name": "DuplicateDepositId",
      "inputs": [
        {
          "name": "depositId",
          "type": "uint256",
          "internalType": "uint256"
        }
      ]
    },
    {
      "type": "error",
      "name": "DuplicateDistributionId",
      "inputs": [
        {
          "name": "distributionId",
          "type": "uint256",
          "internalType": "uint256"
        }
      ]
    },
    {
      "type": "error",
      "name": "ERC1967InvalidImplementation",
      "inputs": [
        {
          "name": "implementation",
          "type": "address",
          "internalType": "address"
        }
      ]
    },
    {
      "type": "error",
      "name": "ERC1967NonPayable",
      "inputs": []
    },
    {
      "type": "error",
      "name": "EmptyArray",
      "inputs": []
    },
    {
      "type": "error",
      "name": "EnforcedPause",
      "inputs": []
    },
    {
      "type": "error",
      "name": "ExceedsMaxAmount",
      "inputs": []
    },
    {
      "type": "error",
      "name": "ExpectedPause",
      "inputs": []
    },
    {
      "type": "error",
      "name": "FailedCall",
      "inputs": []
    },
    {
      "type": "error",
      "name": "InsufficientBalance",
      "inputs": []
    },
    {
      "type": "error",
      "name": "InvalidAmount",
      "inputs": []
    },
    {
      "type": "error",
      "name": "InvalidBatchSize",
      "inputs": []
    },
    {
      "type": "error",
      "name": "InvalidHouseId",
      "inputs": []
    },
    {
      "type": "error",
      "name": "InvalidInitialization",
      "inputs": []
    },
    {
      "type": "error",
      "name": "InvalidInput",
      "inputs": []
    },
    {
      "type": "error",
      "name": "InvalidSequenceId",
      "inputs": []
    },
    {
      "type": "error",
      "name": "InvalidSystemConfig",
      "inputs": []
    },
    {
      "type": "error",
      "name": "NotInitializing",
      "inputs": []
    },
    {
      "type": "error",
      "name": "ReentrancyGuardReentrantCall",
      "inputs": []
    },
    {
      "type": "error",
      "name": "SafeERC20FailedOperation",
      "inputs": [
        {
          "name": "token",
          "type": "address",
          "internalType": "address"
        }
      ]
    },
    {
      "type": "error",
      "name": "SystemConfigCallFailed",
      "inputs": []
    },
    {
      "type": "error",
      "name": "UUPSUnauthorizedCallContext",
      "inputs": []
    },
    {
      "type": "error",
      "name": "UUPSUnsupportedProxiableUUID",
      "inputs": [
        {
          "name": "slot",
          "type": "bytes32",
          "internalType": "bytes32"
        }
      ]
    },
    {
      "type": "error",
      "name": "UnauthorizedAccess",
      "inputs": [
        {
          "name": "caller",
          "type": "address",
          "internalType": "address"
        }
      ]
    },
    {
      "type": "error",
      "name": "ZeroAddress",
      "inputs": []
    }
  ],
  "bytecode": {
    "object": "0x60a080604052346100e857306080527ff0c57e16840df040f15088dc2f81fe391c3923bec73e23a9662efc9c229c6a005460ff8160401c166100d9576002600160401b03196001600160401b03821601610073575b60405161280c90816100ed823960805181818161165a015261172a0152f35b6001600160401b0319166001600160401b039081177ff0c57e16840df040f15088dc2f81fe391c3923bec73e23a9662efc9c229c6a005581527fc7f505b2f371ae2175ee4913f4499e1f2633a7b5936321eed1cdaeb6115181d290602090a15f80610054565b63f92ee8a960e01b5f5260045ffd5b5f80fdfe6080806040526004361015610012575f80fd5b5f3560e01c9081630b658331146121f35750806312baa1ad146121905780631794bb3c14611fb65780631ea30fef14611f9b5780632913daa014611f7e5780632b26a6bf14611e535780632dfdf0b514611e3657806333d7e2bd14611e0e57806335da339414611c965780633f4ba83a14611b23578063408b0d9414611af757806343ab265f14611a6d57806349638052146119e35780634c34a982146119bf5780634f1ef286146116ae57806352d1902d146116485780635312ea8e1461148657806354fd4d501461144757806358db349c146113fc5780635c975abb146108ab5780636412173e146113d457806370905dce146113ac578063726052281461133a5780638456cb59146111c4578063a4e99bfb14611134578063a674e3e114610940578063a9fea1ce14610918578063ad3cb1cc146108d9578063b187bd26146108ab578063bdece83a1461088f578063c65c3d9514610872578063c9452768146107d3578063db95e75c146106f0578063e18aed13146106c6578063e63ea40814610492578063e7c749c2146103b65763f6d7254e146101b3575f80fd5b346103b2576101c1366123eb565b6101c96124d7565b6101d161250f565b81156103a357600181106103945769d3c21bcecceda100000081116103855760018060a01b0360075416600454926001840180941161037157835f52600160205260405f205461035e576020939161031e9160405161022f81612336565b84815286810182815260408083018881524260608501908152608085018781523360a087019081525f8b81526001808f52868220985189559651968801969096559251600287015590516003860155516004850180546001600160a01b03199081166001600160a01b039384161790915591516005959095018054909216941693909317909255918252818752902080546102cb90869061248d565b8155600281016102dc86825461248d565b905560034291015582600455604051906323b872dd60e01b8683015233602483015230604483015284606483015260648252610319608483612352565b612660565b604051913390827f91baa424417c490577421f574d8a166f446fccd1c0b8895b80f7638f8a9ee9685f80a460015f80516020612797833981519152558152f35b836352b17ec560e01b5f5260045260245ffd5b634e487b7160e01b5f52601160045260245ffd5b630475e88f60e51b5f5260045ffd5b63162908e360e11b5f5260045ffd5b633ab1573760e21b5f5260045ffd5b5f80fd5b346103b2576103c4366123eb565b906103cd612401565b50805f52600360205260405f2054821015610483575f52600260205260405f20905f5260205261047f60405f20600760405191610409836122e9565b8054835260018101546020840152600281015460408401526003810154606084015260048101546001600160801b038116608085015260801c60a084015260018060a01b0360058201541660c084015260018060a01b0360068201541660e0840152015461010082015260405191829182612219565b0390f35b63b4fa3fb360e01b5f5260045ffd5b346103b2576104a0366122af565b60065460405163a217fddf60e01b8152919392915f916001600160a01b0316602082600481845afa5f9281610692575b5061062057505060018060a01b03600854168033149081610616575b506105fc575b156105e9576104ff61260d565b6001600160a01b0381169182156105da578315610394576040516370a0823160e01b81523060048201526001600160a01b03919091169190602081602481865afa9081156105cf575f9161059d575b50841161058e5783610560918361249a565b6040519283527f1fcefb8a55f55890575d7a3972108526a056231e1fb145f645053b4b2f7d973e60203394a4005b631e9acf1760e31b5f5260045ffd5b90506020813d6020116105c7575b816105b860209383612352565b810103126103b257518561054e565b3d91506105ab565b6040513d5f823e3d90fd5b63d92e233d60e01b5f5260045ffd5b633733be5960e21b5f523360045260245ffd5b506001335f805160206127178339815191525f80a26104f2565b90501515856104ec565b604051632474521560e21b81526004810192909252336024830152602090829060449082905afa9081156105cf575f91610663575b50156104f2575060016104f2565b610685915060203d60201161068b575b61067d8183612352565b810190612451565b85610655565b503d610673565b9092506020813d6020116106be575b816106ae60209383612352565b810103126103b2575191876104d0565b3d91506106a1565b346103b25760203660031901126103b2576004355f526003602052602060405f2054604051908152f35b346103b25760203660031901126103b2575f60a060405161071081612336565b82815282602082015282604082015282606082015282608082015201526004355f52600160205260c060405f2060405161074981612336565b8154918282526001810154602083019081526002820154604084019081526003830154916060850192835260a0600180821b0360048601541694608087019586526005600180841b0391015416950194855260405195865251602086015251604085015251606084015260018060a01b03905116608083015260018060a01b0390511660a0820152f35b346103b2576107e1366123eb565b905f52600260205260405f20905f5260205261012060405f208054906001810154906002810154600382015460048301549060018060a01b0360058501541692600760018060a01b03600687015416950154956040519788526020880152604087015260608601526001600160801b038116608086015260801c60a085015260c084015260e0830152610100820152f35b346103b2575f3660031901126103b2576020600554604051908152f35b346103b2575f3660031901126103b25760206040516103e88152f35b346103b2575f3660031901126103b257602060ff5f8051602061277783398151915254166040519015158152f35b346103b2575f3660031901126103b25761047f6040516108fa604082612352565b60058152640352e302e360dc1b602082015260405191829182612390565b346103b2575f3660031901126103b257606060405160028152600260208201525f6040820152f35b346103b25760803660031901126103b25760243560043560443567ffffffffffffffff81116103b2576109779036906004016123ba565b9060643567ffffffffffffffff81116103b2576109989036906004016123ba565b906109a1612401565b5060065460405163a217fddf60e01b81525f916001600160a01b0316602082600481845afa5f9281611100575b5061109e57505060018060a01b03600854168033149081611094575b5061107a575b156105e9576109fd6124d7565b610a0561250f565b85156103a357831561106b57600954841161105c5781840361104d5760018060a01b036007541692855f52600160205260405f20604051610a4581612336565b8154808252600183015460208301908152600284015460408401526003840154606084015260048401546001600160a01b03908116608085019081526005909501541660a09093019290925215610483575188148015918691611038575b5050610483575f905f5b84811061101f5750875f525f60205260405f209060028201908382541061058e5793949690889392915f955f975f9a5f935b808510610d3957505050505060018201610afa89825461248d565b9055610b07888254612444565b905560034291015585818103610cef575b50505f52600360205260405f205493855f52600360205260405f20968754975f19891461037157600161047f99019055604051610b54816122e9565b87815260078888886020850198868a526001600160801b036040870199898b52606088014281528260808a0192169b8c83528360a08b0195169d8e865260c08b0196875260e08b01973389526101008c0199818b525f52600260205260405f20905f5260205260405f209a518b555160018b01555160028a01555160038901555116906001600160801b0319905160801b1617600486015560018060a01b03905116600585019060018060a01b03166001600160601b0360a01b82541617905560018060a01b03905116600684019060018060a01b03166001600160601b0360a01b825416179055519101556005548711610ce6575b8581887f6397e2e51a209a3b0aac3334b0301a971d291f6f433a0aed4a17e1cded0e3c8e60a06040518a8152876020820152886040820152896060820152336080820152a460405196610c9c886122e9565b875260208701526040860152426060860152608085015260a084015260c08301523360e083015261010082015260015f805160206127978339815191525560405191829182612219565b86600555610c4a565b610d1c6040917f6d72d8a87838cdc2f2ff82d361ed5dac48f13bbbb182f03cf207d54ef9bc3e1b93612444565b81519081526001600160801b0386166020820152a2848785610b18565b9193999092949596975060018060a01b03610d5d610d588c8589612469565b612536565b16610de157610d6d60019161254a565b99610d7c610d58828589612469565b610d87828688612469565b35908d5f8051602061273783398151915260606040519360208552601660208601527516995c9bc81859191c995cdcc81c9958da5c1a595b9d60521b6040860152878060a01b031693a45b0193918c979695949391610adf565b610dec8a8486612469565b35610e5a57610dfc60019161254a565b99610e0b610d58828589612469565b610e16828688612469565b35908d5f8051602061273783398151915260606040519360208552600b60208601526a16995c9bc8185b5bdd5b9d60aa1b6040860152878060a01b031693a4610dd2565b98610e69610d58828488612469565b610e74828587612469565b35303b156103b2576040516324b1c02960e11b8152600481018e90526001600160a01b03909216602483015260448201525f8160648183305af1908161100f575b50610fe65760015f60033d11610fd6575b6308c379a014610f65575b610ede575b600190610dd2565b98610ef3600191610eed6125de565b5061254a565b99610f02610d58828589612469565b610f0d828688612469565b35908d5f8051602061273783398151915260606040519360208552601960208601527f4c6f77206c6576656c207472616e73666572206661696c6564000000000000006040860152878060a01b031693a49050610ed6565b610f6d612567565b80610f79575b50610ed1565b9a9050610f865f9161254a565b9a610f95610d5884868a612469565b908d5f80516020612737833981519152610fcd610fb3878a8c612469565b6040519035956001600160a01b0316949091829182612390565b0390a48f610f73565b5060045f803e5f5160e01c610ec6565b9a611009600191611002610ffa8f9c61254a565b9b8688612469565b359061248d565b9b610dd2565b5f61101991612352565b8f610eb5565b91611031600191611002858888612469565b9201610aad565b516001600160a01b0316141590508489610aa3565b6307e11acb60e51b5f5260045ffd5b637862e95960e01b5f5260045ffd5b63521299a960e01b5f5260045ffd5b506001335f805160206127178339815191525f80a26109f0565b90501515886109ea565b604051632474521560e21b81526004810192909252336024830152602090829060449082905afa9081156105cf575f916110e1575b50156109f0575060016109f0565b6110fa915060203d60201161068b5761067d8183612352565b886110d3565b9092506020813d60201161112c575b8161111c60209383612352565b810103126103b25751918a6109ce565b3d915061110f565b346103b25760203660031901126103b2575f60606040516111548161231a565b82815282602082015282604082015201526004355f525f602052608060405f206040516111808161231a565b815491828252600181015460208301908152606060036002840154936040860194855201549301928352604051938452516020840152516040830152516060820152f35b346103b2575f3660031901126103b25760065460405163a217fddf60e01b81525f916001600160a01b0316602082600481845afa5f9281611306575b506112a457505060018060a01b0360085416803314908161129a575b50611280575b156105e95761122f61250f565b600160ff195f805160206127778339815191525416175f80516020612777833981519152557f62e78cea01bee320cd4e420270b5ea74000d11b0c9f74754ebdbfc544b05a2586020604051338152a1005b506001335f805160206127178339815191525f80a2611222565b905015158261121c565b604051632474521560e21b81526004810192909252336024830152602090829060449082905afa9081156105cf575f916112e7575b501561122257506001611222565b611300915060203d60201161068b5761067d8183612352565b826112d9565b9092506020813d602011611332575b8161132260209383612352565b810103126103b257519184611200565b3d9150611315565b346103b25760203660031901126103b2576004355f52600160205260c060405f20805490600181015490600281015460038201549060018060a01b0360048401541692600560018060a01b039101541693604051958652602086015260408501526060840152608083015260a0820152f35b346103b2575f3660031901126103b2576008546040516001600160a01b039091168152602090f35b346103b2575f3660031901126103b2576007546040516001600160a01b039091168152602090f35b346103b25760203660031901126103b2576004355f525f602052608060405f208054906001810154906003600282015491015491604051938452602084015260408301526060820152f35b346103b2575f3660031901126103b25761047f604051611468604082612352565b60058152640322e322e360dc1b602082015260405191829182612390565b346103b25760203660031901126103b2576004355f60018060a01b03600654166040519063a217fddf60e01b8252602082600481845afa5f9281611614575b506115b257505060018060a01b036008541680331490816115a8575b5061158e575b156105e9576114f46124d7565b8015610394576007546040516370a0823160e01b81523060048201526001600160a01b039091169190602081602481865afa80156105cf5782915f91611559575b501061058e5761154691339061249a565b60015f8051602061279783398151915255005b9150506020813d602011611586575b8161157560209383612352565b810103126103b25781905184611535565b3d9150611568565b506001335f805160206127178339815191525f80a26114e7565b90501515836114e1565b604051632474521560e21b81526004810192909252336024830152602090829060449082905afa9081156105cf575f916115f5575b50156114e7575060016114e7565b61160e915060203d60201161068b5761067d8183612352565b836115e7565b9092506020813d602011611640575b8161163060209383612352565b810103126103b2575191856114c5565b3d9150611623565b346103b2575f3660031901126103b2577f00000000000000000000000000000000000000000000000000000000000000006001600160a01b0316300361169f5760206040515f805160206127578339815191528152f35b63703e46dd60e11b5f5260045ffd5b60403660031901126103b2576116c2612299565b6024359067ffffffffffffffff82116103b257366023830112156103b2578160040135906116ef82612374565b916116fd6040519384612352565b808352602083019336602483830101116103b257815f926024602093018737840101526001600160a01b037f00000000000000000000000000000000000000000000000000000000000000001630811490811561199d575b5061169f5760065460405163a217fddf60e01b81525f916001600160a01b0316602082600481845afa5f9281611969575b5061190757505060018060a01b036008541680331490816118fd575b506118e3575b156105e9576040516352d1902d60e01b81526001600160a01b0382169390602081600481885afa5f91816118af575b506117ef5784634c9c8ce360e01b5f5260045260245ffd5b805f8051602061275783398151915286920361189d5750823b1561188b575f8051602061275783398151915280546001600160a01b031916821790557fbc7cd75a20ee27fd9adebab32041f755214dbc6bffa90cc0225b39da2e5c2d3b5f80a2825115611872575f8091611870945190845af461186a6125de565b916126b8565b005b5050503461187c57005b63b398979f60e01b5f5260045ffd5b634c9c8ce360e01b5f5260045260245ffd5b632a87526960e21b5f5260045260245ffd5b9091506020813d6020116118db575b816118cb60209383612352565b810103126103b2575190866117d7565b3d91506118be565b506001335f805160206127178339815191525f80a26117a8565b90501515856117a2565b604051632474521560e21b81526004810192909252336024830152602090829060449082905afa9081156105cf575f9161194a575b50156117a8575060016117a8565b611963915060203d60201161068b5761067d8183612352565b8561193c565b9092506020813d602011611995575b8161198560209383612352565b810103126103b257519187611786565b3d9150611978565b5f80516020612757833981519152546001600160a01b03161415905084611755565b346103b2575f3660031901126103b257602060405169d3c21bcecceda10000008152f35b346103b25760603660031901126103b2576004356001600160a01b03811681036103b257602435906001600160a01b03821682036103b257303303611a2f57611870916044359161249a565b60405162461bcd60e51b815260206004820152601660248201527513db9b1e481cd95b198818d85b1b08185b1b1bddd95960521b6044820152606490fd5b346103b25760203660031901126103b257602460206001600160a01b03611a92612299565b16604051928380926370a0823160e01b82523060048301525afa80156105cf575f90611ac4575b602090604051908152f35b506020813d602011611aef575b81611ade60209383612352565b810103126103b25760209051611ab9565b3d9150611ad1565b346103b25760203660031901126103b2576004355f525f6020526020600260405f200154604051908152f35b346103b2575f3660031901126103b25760065460405163a217fddf60e01b81525f916001600160a01b0316602082600481845afa5f9281611c62575b50611c0057505060018060a01b03600854168033149081611bf6575b50611bdc575b156105e957611b8e61260d565b60ff195f8051602061277783398151915254165f80516020612777833981519152557f5db9ee0a495bf2e6ff9c91a7834c1ba4fdd244a5e8aa4e537bd38aeae4b073aa6020604051338152a1005b506001335f805160206127178339815191525f80a2611b81565b9050151582611b7b565b604051632474521560e21b81526004810192909252336024830152602090829060449082905afa9081156105cf575f91611c43575b5015611b8157506001611b81565b611c5c915060203d60201161068b5761067d8183612352565b82611c35565b9092506020813d602011611c8e575b81611c7e60209383612352565b810103126103b257519184611b5f565b3d9150611c71565b346103b25760203660031901126103b257611caf612299565b60065460405163a217fddf60e01b81525f916001600160a01b0316602082600481845afa5f9281611dda575b50611d7857505060018060a01b03600854168033149081611d6e575b50611d54575b156105e9576001600160a01b031680156105da57600880546001600160a01b0319811683179091556001600160a01b03167fd33e3f943e596f2b7b99ed1a5330e4ff9e1a603b1c0bf9866f8c83e8ddb065f25f80a3005b506001335f805160206127178339815191525f80a2611cfd565b9050151583611cf7565b604051632474521560e21b81526004810192909252336024830152602090829060449082905afa9081156105cf575f91611dbb575b5015611cfd57506001611cfd565b611dd4915060203d60201161068b5761067d8183612352565b83611dad565b9092506020813d602011611e06575b81611df660209383612352565b810103126103b257519185611cdb565b3d9150611de9565b346103b2575f3660031901126103b2576006546040516001600160a01b039091168152602090f35b346103b2575f3660031901126103b2576020600454604051908152f35b346103b25760203660031901126103b2576004355f60018060a01b03600654166040519063a217fddf60e01b8252602082600481845afa5f9281611f4a575b50611ee857505060018060a01b03600854168033149081611ede575b50611ec4575b156105e957801561039457600955005b506001335f805160206127178339815191525f80a2611eb4565b9050151583611eae565b604051632474521560e21b81526004810192909252336024830152602090829060449082905afa9081156105cf575f91611f2b575b5015611eb457506001611eb4565b611f44915060203d60201161068b5761067d8183612352565b83611f1d565b9092506020813d602011611f76575b81611f6660209383612352565b810103126103b257519185611e92565b3d9150611f59565b346103b2575f3660031901126103b2576020600954604051908152f35b346103b2575f3660031901126103b257602060405160018152f35b346103b257611fc4366122af565b905f805160206127b7833981519152549260ff8460401c16159367ffffffffffffffff811680159081612188575b600114908161217e575b159081612175575b506121665767ffffffffffffffff1981166001175f805160206127b7833981519152558461213a575b506001600160a01b03169081156105da576001600160a01b03169182156105da57801561105c576103e8811161105c5760207f3aea040f0a97794427640abb0b0b8a2ab94ef5b41307efa3d0ecc48d1e1ac1f991612089612635565b612091612635565b612099612635565b60015f8051602061279783398151915255836001600160601b0360a01b6006541617600655846001600160601b0360a01b600754161760075580600955604051908152a36120e357005b68ff0000000000000000195f805160206127b783398151915254165f805160206127b7833981519152557fc7f505b2f371ae2175ee4913f4499e1f2633a7b5936321eed1cdaeb6115181d2602060405160018152a1005b68ffffffffffffffffff191668010000000000000001175f805160206127b7833981519152558461202d565b63f92ee8a960e01b5f5260045ffd5b90501586612004565b303b159150611ffc565b869150611ff2565b346103b25760203660031901126103b2576004356121ac612401565b50805f52600360205260405f2054908115610483575f52600260205260405f20905f198101908111610371575f5260205261047f60405f20600760405191610409836122e9565b346103b25760203660031901126103b2576020906004355f526003825260405f20548152f35b91909161010080610120830194805184526020810151602085015260408101516040850152606081015160608501526001600160801b0360808201511660808501526001600160801b0360a08201511660a085015260018060a01b0360c08201511660c085015260018060a01b0360e08201511660e08501520151910152565b600435906001600160a01b03821682036103b257565b60609060031901126103b2576004356001600160a01b03811681036103b257906024356001600160a01b03811681036103b2579060443590565b610120810190811067ffffffffffffffff82111761230657604052565b634e487b7160e01b5f52604160045260245ffd5b6080810190811067ffffffffffffffff82111761230657604052565b60c0810190811067ffffffffffffffff82111761230657604052565b90601f8019910116810190811067ffffffffffffffff82111761230657604052565b67ffffffffffffffff811161230657601f01601f191660200190565b602060409281835280519182918282860152018484015e5f828201840152601f01601f1916010190565b9181601f840112156103b25782359167ffffffffffffffff83116103b2576020808501948460051b0101116103b257565b60409060031901126103b2576004359060243590565b6040519061240e826122e9565b5f610100838281528260208201528260408201528260608201528260808201528260a08201528260c08201528260e08201520152565b9190820391821161037157565b908160209103126103b2575180151581036103b25790565b91908110156124795760051b0190565b634e487b7160e01b5f52603260045260245ffd5b9190820180921161037157565b60405163a9059cbb60e01b60208201526001600160a01b0390921660248301526044808301939093529181526124d591610319606483612352565b565b60025f8051602061279783398151915254146125005760025f8051602061279783398151915255565b633ee5aeb560e01b5f5260045ffd5b60ff5f80516020612777833981519152541661252757565b63d93c066560e01b5f5260045ffd5b356001600160a01b03811681036103b25790565b6001600160801b03166001600160801b0381146103715760010190565b5f60443d106125cd576040513d600319016004823e8051913d602484011167ffffffffffffffff8411176125d8578282019283519167ffffffffffffffff83116125d0573d840160031901858401602001116125d057506125cd92910160200190612352565b90565b949350505050565b92915050565b3d15612608573d906125ef82612374565b916125fd6040519384612352565b82523d5f602084013e565b606090565b60ff5f8051602061277783398151915254161561262657565b638dfc202b60e01b5f5260045ffd5b60ff5f805160206127b78339815191525460401c161561265157565b631afcd79f60e31b5f5260045ffd5b905f602091828151910182855af1156105cf575f513d6126af57506001600160a01b0381163b155b61268f5750565b635274afe760e01b5f9081526001600160a01b0391909116600452602490fd5b60011415612688565b906126dc57508051156126cd57602081519101fd5b63d6bda27560e01b5f5260045ffd5b8151158061270d575b6126ed575090565b639996b31560e01b5f9081526001600160a01b0391909116600452602490fd5b50803b156126e556fef10a281b810e0cb73389914d0c0cc5300c542663839e4b2e8ef5a433ac286efb84591632da3297cac8d3bfdd6ff974faf08443fe6e72f89ed83076fe8aaa2592360894a13ba1a3210667c828492db98dca3e2076cc3735a920a3ca505d382bbccd5ed15c6e187e77e9aee88184c21f4f2182ab5827cb3b7e07fbedcd63f033009b779b17422d0df92223018b32b4d1fa46e071723d6817e2486d003becc55f00f0c57e16840df040f15088dc2f81fe391c3923bec73e23a9662efc9c229c6a00a26469706673582212202afce3717d1ddd37b23d2ab3acde8197485e21f2fb09374f5a62abe24c14300264736f6c634300081a0033",
    "linkReferences": {}
  },
  "methodIdentifiers": {
    "MAX_BATCH_SIZE_LIMIT()": "bdece83a",
    "MAX_DEPOSIT_AMOUNT()": "4c34a982",
    "MIN_DEPOSIT_AMOUNT()": "1ea30fef",
    "UPGRADE_INTERFACE_VERSION()": "ad3cb1cc",
    "_safeTransferWrapper(address,address,uint256)": "49638052",
    "defaultPaymentToken()": "6412173e",
    "depositCount()": "2dfdf0b5",
    "depositForHouse(uint256,uint256)": "f6d7254e",
    "depositRecords(uint256)": "72605228",
    "distributeRentForHouse(uint256,uint256,address[],uint256[])": "a674e3e1",
    "distributionCount()": "c65c3d95",
    "distributionRecords(uint256,uint256)": "c9452768",
    "distributionSequenceCount(uint256)": "e18aed13",
    "emergencyAdmin()": "70905dce",
    "emergencyWithdraw(address,address,uint256)": "e63ea408",
    "emergencyWithdraw(uint256)": "5312ea8e",
    "getContractBalance(address)": "43ab265f",
    "getDepositRecord(uint256)": "db95e75c",
    "getDistributionBySequence(uint256,uint256)": "e7c749c2",
    "getDistributionCount(uint256)": "0b658331",
    "getDistributionRecord(uint256)": "12baa1ad",
    "getHouseBalance(uint256)": "408b0d94",
    "getHouseBalanceDetails(uint256)": "a4e99bfb",
    "houseBalances(uint256)": "58db349c",
    "initialize(address,address,uint256)": "1794bb3c",
    "isPaused()": "b187bd26",
    "maxBatchSize()": "2913daa0",
    "pause()": "8456cb59",
    "paused()": "5c975abb",
    "proxiableUUID()": "52d1902d",
    "setEmergencyAdmin(address)": "35da3394",
    "setMaxBatchSize(uint256)": "2b26a6bf",
    "systemConfig()": "33d7e2bd",
    "unpause()": "3f4ba83a",
    "upgradeToAndCall(address,bytes)": "4f1ef286",
    "version()": "54fd4d50",
    "versionDetails()": "a9fea1ce"
  },
  "id": 1
}